{
  "contractName": "AccessControl",
  "abi": [
    {
      "constant": true,
      "inputs": [
        {
          "name": "",
          "type": "address"
        }
      ],
      "name": "owners",
      "outputs": [
        {
          "name": "",
          "type": "bool"
        }
      ],
      "payable": false,
      "stateMutability": "view",
      "type": "function"
    },
    {
      "anonymous": false,
      "inputs": [
        {
          "indexed": false,
          "name": "newContract",
          "type": "address"
        }
      ],
      "name": "ContractUpgrade",
      "type": "event"
    },
    {
      "constant": false,
      "inputs": [
        {
          "name": "_newOwnerAddress",
          "type": "address"
        }
      ],
      "name": "setOwner",
      "outputs": [],
      "payable": false,
      "stateMutability": "nonpayable",
      "type": "function"
    },
    {
      "constant": true,
      "inputs": [
        {
          "name": "_address",
          "type": "address"
        }
      ],
      "name": "isOwner",
      "outputs": [
        {
          "name": "",
          "type": "bool"
        }
      ],
      "payable": false,
      "stateMutability": "view",
      "type": "function"
    }
  ],
  "bytecode": "0x608060405234801561001057600080fd5b506103e8806100206000396000f3fe608060405260043610610057576000357c0100000000000000000000000000000000000000000000000000000000900463ffffffff168063022914a71461005c57806313af4035146100c55780632f54bf6e14610116575b600080fd5b34801561006857600080fd5b506100ab6004803603602081101561007f57600080fd5b81019080803573ffffffffffffffffffffffffffffffffffffffff16906020019092919050505061017f565b604051808215151515815260200191505060405180910390f35b3480156100d157600080fd5b50610114600480360360208110156100e857600080fd5b81019080803573ffffffffffffffffffffffffffffffffffffffff16906020019092919050505061019f565b005b34801561012257600080fd5b506101656004803603602081101561013957600080fd5b81019080803573ffffffffffffffffffffffffffffffffffffffff169060200190929190505050610367565b604051808215151515815260200191505060405180910390f35b60006020528060005260406000206000915054906101000a900460ff1681565b6101a833610367565b1515610242576040517f08c379a00000000000000000000000000000000000000000000000000000000081526004018080602001828103825260288152602001807f596f75206d757374206265206f776e657220746f20706572666f726d2074686981526020017f7320616374696f6e00000000000000000000000000000000000000000000000081525060400191505060405180910390fd5b600073ffffffffffffffffffffffffffffffffffffffff168173ffffffffffffffffffffffffffffffffffffffff161415151561030d576040517f08c379a00000000000000000000000000000000000000000000000000000000081526004018080602001828103825260218152602001807f43616e6e6f742073657420656d707479206164647265737320746f206f776e6581526020017f720000000000000000000000000000000000000000000000000000000000000081525060400191505060405180910390fd5b60016000808373ffffffffffffffffffffffffffffffffffffffff1673ffffffffffffffffffffffffffffffffffffffff16815260200190815260200160002060006101000a81548160ff02191690831515021790555050565b60008060008373ffffffffffffffffffffffffffffffffffffffff1673ffffffffffffffffffffffffffffffffffffffff16815260200190815260200160002060009054906101000a900460ff16905091905056fea165627a7a72305820ca960670c4f44b820d9f00e3616eb4d08cea58324fe3de44163bdb4eadfc2b650029",
  "source": "pragma solidity 0.5.0;\n\ncontract AccessControl {\n    /// Emited when contract is upgraded - See README.md for updgrade plan\n    event ContractUpgrade(address newContract);\n\n    /// The addresses of the accounts (or contracts) that can execute actions.\n    mapping (address => bool) public owners;\n\n    /// Access modifier for owner-only functionality\n    modifier onlyContractOwner() {\n        require(isOwner(msg.sender), \"You must be owner to perform this action\");\n        _;\n    }\n\n    /// Assigns a new address to act as an owner. Only available to the current owner.\n    /// @param _newOwnerAddress The address of the new owner\n    function setOwner(address _newOwnerAddress) public onlyContractOwner {\n        require(_newOwnerAddress != address(0), \"Cannot set empty address to owner\");\n        owners[_newOwnerAddress] = true;\n    }\n\n    /// Checks if an address belongs to an owner.\n    /// @param _address of user\n    function isOwner(address _address) public view returns (bool){\n        return owners[_address];\n    }\n}",
  "sourcePath": "/Users/julicolombo/Projects/CryptoJourney/blockchain/contracts/AccessControl.sol",
  "compiler": {
    "name": "solc",
    "version": "0.5.0+commit.1d4f565a.Emscripten.clang"
  },
  "schemaVersion": "3.0.2",
  "updatedAt": "2020-05-02T22:47:09.206Z",
  "devdoc": {
    "methods": {
      "isOwner(address)": {
        "params": {
          "_address": "of user"
        }
      },
      "setOwner(address)": {
        "params": {
          "_newOwnerAddress": "The address of the new owner"
        }
      }
    }
  },
  "userdoc": {
    "methods": {
      "isOwner(address)": {
        "notice": "Checks if an address belongs to an owner."
      },
      "setOwner(address)": {
        "notice": "Assigns a new address to act as an owner. Only available to the current owner."
      }
    }
  }
}